:10000000940C3580E012C05EE013C05CE014C05A6E
:10000800E015C058940C378EE017C054E018C05261
:10001000E019C050E110C04EE111C04C940C3711F2
:10001800E113C048E114C046E115C044E116C042EE
:10002000E117C040E118C03E940C376BE210C03AB3
:10002800E211C038E212C036E213C034E214C03222
:10003000E215C030E216C02E0000C02C0000000007
:1000380000000000000000000000000000000000B8
:1000400000000000000000000000000000000000B0
:1000480000000000000000000000000000000000A8
:10005000000000000000000000000000940C1000F0
:100058000000000000000000940C101B940C1032EB
:08006000940C1061940C10C710
:1010000094F891000534680093000534D0B6E00FE1
:10100800B907E00FB908270093000751930007526A
:10101000E00F930007539478E2F6EAEE940E3CED6D
:10101800940E3AF2950891B0075191A00752961193
:1010200093B0075193A0075230B3F4593EA8F44946
:1010280027009300075193000752B108E0142701E5
:10103000B9089508E21DE720E23D940E3D5D940E4F
:101038003D15911006C2910006C301D8940E3D37A4
:10104000940E3D15911006C2FF16C01A911006C2EB
:10104800701F2F01F039950AE2F9E9E00FE0270057
:101050001FF091043011F43994F8E008BF0EEF0F3F
:10105800BF0D940C00003013C0032711931006C075
:10106000950891000534600193000534910006C590
:1010680094E8330FB71FFD11C0443601B71FFD11B7
:10107000C09A3605B71FFD11C1303405B71FFD11E9
:10107800C1553503B71FFD11C1CF3409B71FFD1185
:10108000C1AE340AB71FFD11C1B53609B71FFD1136
:10108800C17D360CB71FFD11C28F340CB71FFD117F
:10109000C2A03704B71FFD11C1C23606B71FFD112C
:10109800C1EA3708B71FFD11C21F950893FF93EFE8
:1010A000930F931F91053000F039911000C0FF1588
:1010A800CFFC930000C6CFF6911F910F91EF91FFEF
:1010B0009508940E3DCEE2F6E8EE940E3CE9E2F699
:1010B800ECE6940E3CE9946895082700E0B7E5A4AF
:1010C000930C971130B7F7E134AEF7D1950894F847
:1010C800E500771F6410931005019170050F61709A
:1010D0009370050FB9759170050F62709370050FCD
:1010D800B9759170050F60749370050FB9759170AB
:1010E0000511777F937005119170050F60729370F1
:1010E800050FB975930F917005116870937005110C
:1010F000937005119170050F7F7D9370050FB97581
:1010F800940E36CE910F930F91700511777F9370F0
:1011000005119170050F60729370050FB975940EFB
:1011080036CE910FCFDF940E3DCE91B006C691A09A
:1011100006C791D006C891C006C993BF93AF93DFAD
:1011180093CF940E3D3791AF91BF93BF93AF940E89
:101120003D37940E3D1591CF91DF91AF91BF23BB19
:10112800F45123AAF44123DDF43123CCF42127BB65
:1011300027AAE1D4EDCF0FAA1FBB27009300074FCA
:1011380095B695A7940E3D370FAA1FBBE2F9E7E8CD
:10114000940E3CEDE22001FD9611E001230AF059D6
:1011480093BF93AF95B695A72F0C170A2F0D070BD2
:1011500091AF91BFF0B2E00127E09104930F940E9C
:101158003D09910FD02E952AF731E50D940E3CFEEE
:1011600093AF91A0074F940E3D26940E3D1591AF7D
:10116800CFCFE50D940E3CFE93AF91A0074F940EA0
:101170003D26940E3D1591AFE2F9E6EC940E3CED60
:1011780091B006C691A006C7940E3D3701DE940EC5
:101180003D3791A0074F940E3D26940E3D1594686F
:101188009508930F931F932F933F2F109130074F7C
:10119000E0282F032701700194E8F0099468953640
:10119800F416E80C27309330074F9516952AF789EF
:1011A000913F912F911F910F9508940E3DCE91B0D4
:1011A80006C691A006C723BBF42123AAF411E210B6
:1011B000C001E018940E3D37E2F9E7E8940E3CEDEB
:1011B800E120940E3F2E940E3D09961130B4F4218F
:1011C00030A0F411E021E011952AF799E2F9E7EC5B
:1011C800940E3CED951AF7319468950891A006CCD9
:1011D00095A62F2A91B006C691A006C7E001E0149B
:1011D8001B02401017A007B1F52A940E3DCE2F121E
:1011E000E0D6ECCE910006C47B0F930006C48108C4
:1011E800D1272F202700940E3F2E1302C0059611F9
:1011F0009622951AF7A1C010E2F9E8E0940E3CEDB2
:1011F800940E3D37940E3D15910006C4640093008B
:1012000006C4C002940E3DD394689508940E3DCE5A
:1012080091B006C691A006C723BBF43123AAF421E6
:1012100027BB27AAE210C001E018940E3D37E2F97F
:10121800E7E8940E3CEDE120910D940E3D0930B1C4
:10122000F42130A0F411E021E011952AF7A9E2F9A8
:10122800E7EC940E3CED951AF74194689508940EF6
:101230003DCE91B006C691A006C7910006CE930C94
:1012380094689508E2F9EAE0DE6191B006C691A0EB
:1012400006C794F8910006CF930C9711910006CE33
:10124800930C947894689508940E3DCE91B006C698
:1012500091A006C7910006CE930C94689508940E51
:101258003DCE91B006C691A006C791D006C891C0F0
:1012600006C993BF93AF93DF93CF940E3D3791AFF1
:1012680091BF93BF93AF940E3D37940E3D1591CF28
:1012700091DF91AF91BF912006C7914006C9172415
:10127800B60FD051913006C6915006C8BE0F07353B
:10128000D04A94689508940E3DCEE201BF07E0F085
:10128800E0E091A4940E3D26E201BF07E0F0E0E221
:1012900091A4940E3D26E201BF07E0F0E0E491A4A2
:10129800940E3D26940E3D15E009BF07E0F0E0E00E
:1012A00091A4940E3D26E009BF07E0F0E0E191A48F
:1012A800940E3D26E009BF07E0F0E0E291A4940E19
:1012B0003D26E009BF07E0F0E0E391A4940E3D264F
:1012B800940E3D1594689508940E3DCE91F006C69F
:1012C00091E006C79630F421E008BF0EEF0FBF0D86
:1012C800950994689508B7AF93AFE2F9E9EA940EE7
:1012D0003CED91AF93AF940E3D2691AF2F1AE50BE5
:1012D800940E3CFE1F11E20EF408E409940E3CFE45
:1012E0001F11E20EF408E504940E3CFE1F11E20EFD
:1012E800F408E408940E3CFE1F11E20EF408E5032E
:1012F000940E3CFE1F11E20EF408E506940E3CFE2F
:1012F8001F11E20EF408E40E940E3CFE1F11E20EDC
:10130000F408E50A940E3CFE1F11E20EF408E40313
:10130800940E3CFEE50D940E3CFE940E3D1595089A
:10131000BDA1BDB2BD0098FD98FC94F89AFA9AF967
:10131800947899F9CFFE9508940E3DCE910006C7B2
:10132000930F2FA0940E3D26910FE0F7E5E495036F
:10132800830091A00754940E3D26940E3D159468B1
:101330009508940E3DCE910006C7930F2FA0940EF2
:101338003D26910FE0F7E5E4950A830091A0075454
:10134000940E3D26940E3D1594689508FFFF2323C7
:1013480020236F4D696E6F7420725224766573691D
:101350006F693A6E3120312E20390A240000232390
:1013580020236E4974696169696C617A69746E6F7A
:101360002E2E0A2E000023232023202D3C27273F4A
:101368002020202020202020202020202020202075
:10137000202057206F686D610A6923232023202DC8
:101378003C275B616441726472466D6F412D646401
:1013800054725D6F202743206C617563616C6574D6
:10138800432043522D38414D49580A4D23232023E9
:10139000202D3C275B656441726472466D6F275D4A
:10139800202020202020202044206D752070666F9A
:1013A000452050454F520A4D23232023202D3C2712
:1013A8004145646465727373762B2B3031762E2B2E
:1013B0002E2E202757206972657420736176756C14
:1013B80073656920206E454552504D4F0A202323FE
:1013C0002023202D3C27276620202020202020209D
:1013C8002020202020202020202052206165206419
:1013D00069736E67746172752065235B5D30235B92
:1013D8005D31235B5D326120646E74206568662030
:1013E000737573655B206F4C5D774C5B636F5D6BF2
:1013E800455B74785B5D694868670A5D2323202341
:1013F000202D3C275B696441726472466D6F275DE6
:1013F800202020202020202044206D752070666F3A
:1014000049204F2F0A2023232023202D3C27414908
:10140800646465727373562B6C61657520272020A0
:1014100020205720697265746220747920656E6996
:1014180049204F2F0A2023232023202D3C27414AEF
:10142000646465727373562B6C6165752027202088
:1014280020205720697265747720726F2064534DAD
:101430003A42534C20426E6949204F2F612020745C
:10143800415B646465727373283A644172647365CE
:101440002D7329310A5D23232023202D3C27566C40
:101448006C61657520272020202020202020202066
:1014500020204C20616F20646E6120646C636165A4
:101458002072657474730A2023232023202D3C27CF
:10146000564C6C61657520272020202020202020EC
:10146800202020204C20616F20646E612064657309
:101470002074657474730A2023232023202D3C27B5
:101478004153646465727373562B6C6165752027DC
:10148000202020205720697265746920206E5253F5
:101488004D410A2023232023202D3C2756746C61CC
:1014900065752D316156756C32652027202020201E
:101498005420736520746F63706D72610A6523232D
:1014A0002023202D3C2741786464657273732027C4
:1014A8002020202020202020202043206C61206C38
:1014B0006F744120646465727373000A5243384349
:1014B8004D2D58414D490020305B00780A5D0000F1
:1014C00072453A72452050454F52204D74610020BC
:1014C8000B070E0D2323202300005253474500200D
:1014D0004A3E5B206B4F0A5D0000655474734C20DC
:1014D8004341000A655474734C205341000A123486
:00000001FF
